:100000000C9467000C944D080C9426080C948F00F7
:100010000C948F000C948F000C948F000C948F0024
:100020000C948F000C9474080C948F000C948F0027
:100030000C948F000C948F000C948F000C948F0004
:100040000C94DC070C948F000C948F000C948F00A0
:100050000C948F000C948F000C948F000C948F00E4
:100060000C94BD060C948F000000000024002700B3
:100070002A0000000000250028002B0000000000DE
:1000800023002600290004040404040404040202DA
:100090000202020203030303030302020301020438
:1000A00008102040800102040810200102040810FA
:1000B0002040804000000009000302000004050801
:1000C0000000000000000000000000009108112462
:1000D0001FBECFEFD4E0DEBFCDBF11E0A0E0B1E0A6
:1000E000E0E0F6E202C005900D92A43DB107D9F719
:1000F00022E0A4EDB1E001C01D92A43BB207E1F7FC
:1001000010E0C7E6D0E004C02197FE010E94EF1086
:10011000C636D107C9F70E94B2080C94FE120C949F
:10012000000085ED8093BC008091BC0084FDFCCF75
:1001300010927502089520914F02260F3327331F26
:1001400021323105ECF420917502FC0190E080E051
:10015000243069F082E00895A0914F022191AC0112
:10016000435D5D4FA40FB52FB11D2C9301968617EB
:1001700098F380914F02680F60934F0280E00895DA
:1001800081E00895089508950895E0912A028091EC
:100190002902E81730F4F0E0E75FFD4F808190E03E
:1001A00008958FEF9FEF089590912A028091290280
:1001B0002FEF3FEF981748F4E92FF0E0E75FFD4F8E
:1001C000208130E09F5F90932A02C90108958091B9
:1001D000290290912A02891B990B0895CF92DF92F0
:1001E000EF92FF920F931F93CF93DF937C01CB018C
:1001F0008A0120910802222389F0EB016B01C40ED1
:10020000D51ECC15DD0569F06991D701ED91FC9102
:100210000190F081E02DC7010995F3CF642F0E9472
:100220009B00C801DF91CF911F910F91FF90EF903C
:10023000DF90CF900895CF93DF931F92CDB7DEB7B5
:100240006983209108022223F9F020912B022032A9
:1002500058F021E030E0FC013383228390E080E01D
:100260000F90DF91CF91089580912C02E82FF0E05C
:10027000E851FE4F998190838F5F80932C02809389
:100280002B0281E090E0ECCF61E0CE0101960E946C
:100290009B00F7CF843081F028F48230E9F083307E
:1002A000F9F00895883071F0893091F08530B9F413
:1002B000809180008F7D03C0809180008F77809334
:1002C000800008958091B0008F778093B0000895EA
:1002D0008091B0008F7DF9CF84B58F7784BD08956C
:1002E00084B58F7DFBCFCF93DF93282F30E0F901CA
:1002F000EC54FF4F8491F901E356FF4FD491F9017B
:10030000EA57FF4FC491CC23A1F081110E944A010A
:10031000EC2FF0E0EE0FFF1FE458FF4FA591B491D2
:10032000EC91ED2381E090E009F480E0DF91CF9142
:10033000089580E090E0FACF1F93CF93DF93282FAA
:1003400030E0F901EC54FF4F8491F901E356FF4F7F
:10035000D491F901EA57FF4FC491CC23A9F0162F8D
:1003600081110E944A01EC2FF0E0EE0FFF1FEE58C2
:10037000FF4FA591B4918FB7F894EC91111108C07B
:10038000D095DE23DC938FBFDF91CF911F9108952D
:10039000DE2BF8CFCF93DF9390E0FC01E356FF4FC5
:1003A00024918A579F4FFC0184918823D1F090E0DB
:1003B000880F991FFC01E859FF4FA591B491FC01EA
:1003C000EE58FF4FC591D491623071F49FB7F89405
:1003D0003C91822F809583238C93E8812E2B288358
:1003E0009FBFDF91CF9108958FB7F894EC912E2B9A
:1003F0002C938FBFF6CF8130910539F0880F991F6C
:10040000880F991F05970197F1F708953FB7F89462
:100410008091E4019091E501A091E601B091E7019E
:1004200026B5A89B05C02F3F19F00196A11DB11D4F
:100430003FBFBA2FA92F982F8827BC01CD01620F8B
:10044000711D811D911D42E0660F771F881F991F46
:100450004A95D1F708958F929F92AF92BF92CF9213
:10046000DF92EF92FF926B017C010E9406024B012A
:100470005C01C114D104E104F104B9F00E94060248
:10048000681979098A099B09683E734081059105BD
:1004900080F321E0C21AD108E108F10888EE880E45
:1004A00083E0981EA11CB11CE4CFFF90EF90DF9079
:1004B000CF90BF90AF909F908F90089583E00E945F
:1004C0007301892B49F08091DC018F5F8093DC01FF
:1004D00082E390E00C94FB018091DD018F5F8093BB
:1004E000DD01F6CF0895AF92BF92CF92DF92EF92E7
:1004F000FF920F931F93CF93DF936C017B018B01CE
:10050000040F151FEB015E01AE18BF08C017D1071D
:1005100059F06991D601ED91FC910190F081E02DA7
:10052000C6010995892B79F7C501DF91CF911F91FC
:100530000F91FF90EF90DF90CF90BF90AF90089514
:10054000CF93CFB7F8948091D801811127C0E0E90B
:10055000F0E08491E7EAF0E09491E82FF0E0EE0F0C
:10056000FF1FE859FF4FA591B491EC91E92321F4C5
:1005700061E08AE00E949C0161E08AE00E94CA0179
:100580008CB580618CBD8CB580648CBD61E08DE0E4
:100590000E94CA0161E08BE00E94CA018091D801EB
:1005A0008F5F8093D801CFBFCF910895CF93FC0187
:1005B000C48121E020930802C093D70110922C023D
:1005C00010922B028485682B8BE992E00E941B011C
:1005D00090912B02913208F03FC0809175028111F9
:1005E000FCCF82E08093750281E0809377028FEFE9
:1005F000809374021092990290939802A8EEB1E051
:10060000E8E7F2E080E098132FC010929A02809100
:100610009A02CC0FC82BC0939A0280917602813047
:1006200039F51092760280919A028093BB008091F6
:10063000BC0083FDF8CF85EC8093BC0080917502EF
:100640008230E1F3809174028F3F31F08091740227
:10065000803211F08091740210922C0210922B02C1
:1006600010920802CF9108952D9121938F5FCBCFE7
:1006700085EEE2CF0F931F93CF938C01C62F0E947C
:10068000D6026C2F6460C8010E94D60281E090E01F
:100690000E94FB016C2F6B7FC8010E94D60282E38F
:1006A00090E0CF911F910F910C94FB010F931F933A
:1006B000CF93DF938C01D62FC42F607F642B0E94D1
:1006C0003A0380E1D89FB00111246C2BC801DF915F
:1006D000CF911F910F910C943A0340E0682F87EA65
:1006E00092E00C945603CF93DF93CDB7DEB72897F3
:1006F0000FB6F894DEBF0FBECDBF98E0EEE1F1E09B
:10070000DE01119601900D929A95E1F79091AF025A
:10071000961708F46FEF70E0660F771F21E030E066
:100720002C0F3D1F620F731FFB019081890F8068A2
:1007300028960FB6F894DEBF0FBECDBFDF91CF91E4
:100740000C946D03E7EAF2E086818D7F86838860F2
:100750000C946D0381E00E946D0380ED97E00E9490
:10076000FB018091B002882321F060E080E00C94CE
:1007700073030895E7EAF2E08681982F91609683EB
:1007800089600C946D03E7EAF2E086818E7F8683B0
:1007900088600C946D03E7EAF2E08681982F9260FE
:1007A00096838A600C946D0341E00E94560381E0B9
:1007B00090E0089541E0682F87EA92E00E94560396
:1007C00081E090E00895089590E080E008958091A0
:1007D000DC01882339F08091DC0181508093DC01B9
:1007E0008FEF08958091DD01882339F08091DD013C
:1007F00081508093DD0181E0089580E00895CF93DA
:10080000DF9384E00E947301811131C09091010156
:10081000992369F1C0E088EC90E00E94FB0184E03C
:100820000E947301892BB1F7CF5FC530A1F7C1E0FA
:10083000D0E064E670E080E090E00E942B0284E06B
:100840000E947301282F81110BC02196C233D1055C
:1008500081F790E080E020930101DF91CF9108952E
:1008600081E090E02597B8F382E090E0F4CF8093A8
:10087000010190E080E0F1CFCF9387E00E94730107
:10088000811116C090910001992391F0C0E088EC8D
:1008900090E00E94FB0187E00E947301892BB1F771
:1008A000CF5FC530A1F71092000181E0CF9108958C
:1008B0008093000180E0FACFCF93DF93EC0161E0F9
:1008C0008EE00E949C01BE0190E080E00E942B021D
:1008D00060E08EE0DF91CF910C949C018F929F920B
:1008E000AF92BF92CF92DF92EF92FF920F931F933E
:1008F000CF93DF9300D000D000D01F92CDB7DEB7EA
:10090000042F603826E9720728E98207910520F054
:100910006FE776E988E990E019821A821B821C82CF
:100920001D821E821F8210E026E0C22ED12C3AE0EA
:10093000832E912CA12CB12C611571058105910597
:1009400099F07601E11AF108E1E0F0E0EC0FFD1F0B
:10095000EE0EFF1EA50194010E94CD10F7016083E9
:10096000B901CA011F5FE8CF60E084E00E94730311
:100970009E012F5F3F4F790110E011112FC0898137
:10098000882329F0805D0E94DA038EE204C080E2B1
:100990000E94DA0380E20E94DA031F5FFFEFEF1A82
:1009A000FF0A173051F78BE60E94DA0388E40E94B1
:1009B000DA038AE727960FB6F894DEBF0FBECDBFE5
:1009C000DF91CF911F910F91FF90EF90DF90CF902B
:1009D000BF90AF909F908F900C94DA03113061F428
:1009E0008981811105C08A81811102C0023091F68E
:1009F000F7018081805DCFCF123061F48981811150
:100A0000F7CF8A818111F4CF8B818111F1CF011150
:100A1000EFCFC0CF133061F78C81B4CF8FB7F8948C
:100A20008091D6018FBF08958EBD00000DB407FEE2
:100A3000FDCF8EB508958CBD9DBD08951F93CF93B6
:100A4000DF93EC01162F411142C0BC0190E080E021
:100A50000E9403129B01AC010E94F61020ED33EBC3
:100A60004DED5FE3113021F425ED34E045EB5FE31C
:100A70000E94911220E030E040E05FE30E94F61017
:100A80000E94D411EB01C93582E0D80700F188EE4D
:100A900093E00E945C04C93582E0D807C1F068EC9D
:100AA00070E080E090E00E942B0288EE93E00E94CC
:100AB0005C04CA3582E0D80751F068EC70E080E051
:100AC00090E00E942B0288EE93E00E945C04C935FE
:100AD00082E0D80710F0C8E5D2E0BE0190E080E0E7
:100AE0000E94031220E030E046E154E40E946211CB
:100AF00020E030EF4FE755E40E9491120E94D4119C
:100B0000660F771F660F771FEB01DF7389E591E0B2
:100B10000E941B0560E089E00E949C018D2F0E94CD
:100B200014058C2F0E94140561E089E0DF91CF91BC
:100B30001F910C949C01CF93DF93EC0188E590E02A
:100B40000E941B0560E08AE00E949C018D2F0E949C
:100B500014058C2F0E94140561E08AE0DF91CF918B
:100B60000C949C01CF92DF92EF92FF920E940312AD
:100B700020E23CEB4EEB5BE40E94621120E030E0AF
:100B800040E85DE40E9491120E94D4116B017C0147
:100B9000CB019F7390640E949B05D701C6012EE094
:100BA000B695A795979587952A95D1F79064FF906C
:100BB000EF90DF90CF900C949B0582EA91E20E9427
:100BC0009B0582EA90E29093D5018093D40161E085
:100BD00070E080E090E00E942B0282EA90E20C94A8
:100BE0009B05823019F150F4882399F08130A1F0EF
:100BF0008091D4019091D5010C949B052091D40152
:100C00003091D5018330C9F0843091F72F7522607F
:100C100016C00E94DD05ECCF8091D4019091D501E2
:100C20008D759093D5018093D401E2CF8091D4014A
:100C30009091D5018D778862F4CF2577206230932B
:100C4000D5012093D401D4CFFC0101900020E9F715
:100C50003197AF01481B590BBC0187EA92E00C9415
:100C60007302823061F0843089F08130B1F461E048
:100C700080E00E94730384E491E00C94240661E018
:100C800080E00E9473038DE491E0F7CF61E080E0A3
:100C90000E9473038EE591E0F0CF0895FF920F93C9
:100CA0001F93CF93DF938C01F62E61E089E00E94C1
:100CB0007303C80164E670E00E94B910CB01CAE07A
:100CC000D0E0BE010E94B910805D0E94DA038EE27E
:100CD0000E94DA03C801BE010E94B910182FCB018F
:100CE000BE010E94B910805D0E94DA0380E3810F8B
:100CF0000E94DA0361E08DE00E9473038BE691E0CD
:100D0000FF2011F087E691E0DF91CF911F910F91C5
:100D1000FF900C942406CF92DF92EF92FF92C09046
:100D20000F01D0901001E0901101F0901201C70165
:100D3000B6010E94B205F999FECFB701A60182E083
:100D400090E0FF90EF90DF90CF900C949710CF93AE
:100D5000DF93C0911901D0911A0140911B0160915C
:100D60001D01CE010E941E05F999FECFBE0180E053
:100D700090E0DF91CF910C94A3101F920F920FB6C9
:100D80000F9211242F933F934F935F936F937F9311
:100D90008F939F93AF93BF93EF93FF938091B9008D
:100DA000887F803609F44AC0F0F5883209F4A7C07C
:100DB00018F5803109F49BC0B8F4882309F4F9C010
:100DC000883009F494C0FF91EF91BF91AF919F914A
:100DD0008F917F916F915F914F913F912F910F90E4
:100DE0000FBE0F901F901895883109F488C080328B
:100DF00051F78093740214C0803409F49DC040F40C
:100E00008033B9F38833F9F68093740285ECB0C06F
:100E1000803509F485C0883509F496C0883499F680
:100E20000E949100D0CF883909F48CC038F58837FA
:100E300029F050F4883611F0803729F683E080934A
:100E400075021092730257C0883809F47BC080394C
:100E500019F0803809F0B7CF80917302803208F022
:100E600071C0E091730281E08E0F809373028091D4
:100E7000BB00F0E0ED5AFD4F80833DC0803B39F070
:100E8000E0F4803A09F479C0883A09F09CCF84E014
:100E9000809375021092500210924F02E0914D0221
:100EA000F0914E02099580914F0281110FC081E0AF
:100EB00080934F0210922D0209C0803C09F4A6CF06
:100EC000883C09F4A3CF883B09F07DCFE091500224
:100ED00081E08E0F80935002F0E0E35DFD4F808152
:100EE0008093BB009091500280914F0229C0809165
:100EF0009A028093BB0085EC8093BC0064CF9091F4
:100F0000990280919802981758F5E091990281E032
:100F10008E0F80939902F0E0E858FD4F8081E9CF71
:100F2000E091990281E08E0F809399028091BB003D
:100F3000F0E0E858FD4F80839091990280919802EB
:100F40009817C8F285E8D8CFE091990281E08E0F1A
:100F5000809399028091BB00F0E0E858FD4F8083B8
:100F60008091770281115CCF81E08093760284EAE0
:100F70008093BC001092750226CF85EC8093BC0054
:100F80001092750280917302803230F4E091730206
:100F9000F0E0ED5AFD4F10826091730270E0E09135
:100FA0005102F091520283E592E00995109273028A
:100FB0000ACF1092740234CF1F920F920FB60F9285
:100FC00011242F933F938F939F93AF93BF9380915F
:100FD000E0019091E101A091E201B091E301309133
:100FE000DF0123E0230F2D3768F126E8230F029657
:100FF000A11DB11D2093DF018093E0019093E101D9
:10100000A093E201B093E3018091E4019091E501A6
:10101000A091E601B091E7010196A11DB11D809359
:10102000E4019093E501A093E601B093E701BF913D
:10103000AF919F918F913F912F910F900FBE0F9085
:101040001F9018950196A11DB11DD4CF1F920F922C
:101050000FB60F9211242F933F934F935F936F938B
:101060007F938F939F93AF93BF93EF93FF93E09101
:101070000401F09105010995FF91EF91BF91AF91A6
:101080009F918F917F916F915F914F913F912F91A0
:101090000F900FBE0F901F9018951F920F920FB6D2
:1010A0000F9211242F933F934F935F936F937F93EE
:1010B0008F939F93AF93BF93EF93FF93E0910201C0
:1010C000F09103010995FF91EF91BF91AF919F912D
:1010D0008F917F916F915F914F913F912F910F90E1
:1010E0000FBE0F901F9018951F920F920FB60F9280
:1010F00011248F939F938091DB0191E0980F90933F
:10110000DB018D3338F01092DB018091DA018F5FC3
:101110008093DA019F918F910F900FBE0F901F90D7
:101120001895EBE9F2E01382128288EE93E0A0E0DA
:10113000B0E084839583A683B7838AE291E09183AC
:101140008083E7EAF2E0138212828CE391E09183DC
:101150008083118687E2848380E1828782E08387AF
:1011600014860895789484B5836084BD85B58360C2
:1011700085BD80916E00816080936E0082E08093D7
:101180008100809181008160809381008091800046
:101190008160809380008091B10084608093B10071
:1011A0008091B00081608093B00087E880937A00DE
:1011B0001092C10062E087E00E94CA0162E084E010
:1011C0000E94CA0162E083E00E94CA0162E082E0FC
:1011D0000E94CA018EE592E0909303018093020180
:1011E000809169008C7F826080936900E89A0E94F8
:1011F000FF03892B19F081E08093D901F999FECF83
:1012000087E090E00E94711080931D019FEF980F7E
:10121000923028F0843019F081E080931D01F99913
:10122000FECF82E090E00E94791060930F017093EE
:1012300010018093110190931201611571058105D0
:101240009105B9F020911D0130E4C32E3BE4D32E6B
:101250003CE4E32EF12C223039F020E2C22E21EAC8
:10126000D22E27E0E22EF12CC616D706E806F906A4
:1012700060F488EE93E0A0E0B0E080930F019093DB
:101280001001A0931101B0931201F999FECF80E0F3
:1012900090E00E947F1090931A0180931901893584
:1012A000924030F088EC90E090931A0180931901FD
:1012B00020910E012A3089F48091190190911A0130
:1012C0006AE070E00E94B910269FC001279F900D30
:1012D000112490931A0180931901F999FECF86E0A9
:1012E00090E00E94711080931B01823018F081E021
:1012F00080931B0110922A021092290210922C0254
:1013000010922B021092750281E080937702109266
:10131000760261E082E10E949C0161E083E10E942B
:101320009C018091B9008E7F8093B9008091B900B3
:101330008D7F8093B90088E48093B80085E4809322
:10134000BC0082EC90E090934E0280934D0283ECBF
:1013500090E090935202809351021092AC028091DF
:10136000B202823018F098E09093AC028093AF0202
:1013700062E370E080E090E00E942B026091B30293
:1013800087EA92E00E94D60268EE73E080E090E087
:101390000E942B0260E387EA92E00E943A0384E90C
:1013A00091E10E94FB0160E387EA92E00E943A0328
:1013B00084E991E10E94FB0160E387EA92E00E94E8
:1013C0003A0386E990E00E94FB0160E287EA92E03E
:1013D0000E943A038091AC0280620E946D0384E017
:1013E0008093AD028CE00E946D030E94AA0382E00C
:1013F0008093AE0286E00E946D0382E00E946D033E
:1014000080ED97E00E94FB0188E08093B30260E0EA
:1014100087EA92E00E94D6028FE691E00E942406BD
:1014200061E080E00E94730380E891E00E9424065E
:1014300064EC79E080E090E00E942B020E94AA0315
:1014400081E991E00E94240661E080E00E9473033C
:1014500082EA91E00E9424060E94A20364EC79E0F3
:1014600080E090E00E942B028091D9018130B1F49C
:101470000E94AA0383EB91E00E94240661E080E0D1
:101480000E94730384EC91E00E9424060E94A20350
:1014900064EC79E080E090E00E942B020E94AA03B5
:1014A0000E94A20361E089E00E949C0161E089E062
:1014B0000E94CA010E94A00261E088E00E94CA0165
:1014C00060E088E00E949C0161E08EE00E94CA0119
:1014D00060E08EE00E949C010E94A0020E94A00297
:1014E0000E94DD058091B10087608093B100C091BA
:1014F0001D0140911B016C2F8091190190911A01DF
:101500000E941E0560910F017091100180911101E0
:101510009091120140E00E946E048C2F0E943106CF
:1015200080911D01823009F457C060911B018091A8
:10153000190190911A010E944E0660E088E00E9415
:101540009C0160910F0170911001809111019091A7
:1015500012010E94B20580911D010E94F10588E1EF
:1015600098E20FB6F894A895809360000FBE909310
:101570006000A89598EE892E93E0992EA12CB12CAD
:10158000C1E0D0E0A8958091DE01811130C00E94B9
:101590003C048823D1F081E08093DE011092DD01CC
:1015A0001092DC0180911D0180931C0161E080E0BC
:1015B0000E9473030E94BA031092DB011092DA01B9
:1015C0008091700081608093700080E090E0892BB2
:1015D000C9F20E940000D4CF61E088E00E949C0123
:1015E0006AE070E080E090E00E942B02AACF813098
:1015F00009F055C18091DA018E31E8F01092DE01D8
:10160000809170008E7F809370000E94A203809171
:101610001D0190911C0198130E94310680911D01BB
:10162000823099F260911B018091190190911A0109
:101630000E944E06CACF0E94E7038823D9F1109278
:10164000DB011092DA0190911C018F3F41F491303F
:1016500051F0923011F081E007C084E005C0913074
:10166000E1F39430C1F782E080931C018091D901AD
:1016700081110FC01092DB011092DA0180911C01E0
:1016800090911D0189134AC061E080E00E947303BC
:101690009CCF80911C010E94310680911C018230F8
:1016A00099F360911B018091190190911A010E9498
:1016B0004E06EACF0E94FF03892BE1F60E943C040C
:1016C000882309F482CF1092DB011092DA01809115
:1016D0001D0190911C0198130E94310680911D01FB
:1016E000823009F4A4C082E08093DE018091190168
:1016F00090911A01909314018093130160911B0142
:101700000E944E0680910E018A3009F08EC08BE057
:1017100061E00E9473030E94BA0357CF80931D01BA
:101720000E94310610911D01812F0E94F1058091C8
:101730001C01823009F456C084ED90E0113011F0A4
:101740008DEA90E09093180180931701D0931601D1
:10175000C093150120911B01213061F020911901E6
:1017600030911A018217930708F057C090931A011D
:10177000809319018091190190911A01909314019D
:10178000809313010E94A70660911B0180911901AB
:1017900090911A010E944E0680910F0190911001C4
:1017A000A0911101B09112018132914AA740B10577
:1017B000C8F080E291EAA7E0B0E080930F01909337
:1017C0001001A0931101B09312010E948B06609149
:1017D0000F0170911001809111019091120140E070
:1017E0000E946E04F999FECF60911D0187E090E0A0
:1017F0000E94851080911D0161E0823009F060E057
:1018000088E00E949C018091D901813009F03CCF91
:1018100080E590E00E945C0437CF232B09F0AACF2B
:10182000D0931A01C0931901A5CF8CE071CF83E04A
:101830008093DE0180910F0190911001A091110120
:10184000B091120180930A0190930B01A0930C01B7
:10185000B0930D0180349244AF40B105A8F080EA06
:1018600096E8A1E0B0E08093060190930701A09371
:101870000801B093090160E086E00E9473030E94B2
:10188000CB030E94C303A1CE809206019092070170
:10189000A0920801B092090160E088E0EECF8230AA
:1018A00009F05DC18091DA018E31D0F01092DE0135
:1018B000809170008E7F809370000E94A2030E942E
:1018C000C3038091190190911A0120911301309165
:1018D00014012817390709F478CE60911B01A8CEAE
:1018E0000E94E703882309F451C01092DB01109293
:1018F000DA0120910E01382F3203C001112420910A
:10190000130130911401820F931F10911B011130AC
:1019100009F4DDC320911501309116018217930758
:1019200008F4DAC3209117013091180128173907FC
:1019300008F4D2C39093140180931301612F809116
:101940001301909114010E944E0680910E018A307D
:10195000D9F48BE061E00E9473038091D901811179
:1019600034CE80911301909114012091190130918E
:101970001A018217930709F428CE90931A018093D5
:1019800019010E94A70621CE8CE0E4CF0E94FF033C
:10199000009709F4C7C01092DB011092DA01209180
:1019A000D9012130B1F420911301309114014091FB
:1019B000190150911A012417350759F030931A0173
:1019C000209319010E94A70680E590E00E945C0424
:1019D000FCCD029709F097C010911D01609119018B
:1019E00070911A0180911B01882309F452C0109252
:1019F0001B0190E080E00E94031225ED34E045E3F6
:101A000050E4113021F020ED33EB4DE550E40E941D
:101A100062110E94D41170931A01609319012091F0
:101A20001701309118012617370720F430931A0157
:101A300020931901809115019091160120911901AF
:101A400030911A012817390720F490931A018093D6
:101A500019018091190190911A01909314018093BA
:101A6000130160911B010E944E0680910E018A3085
:101A700009F047C08BE061E00E9473030E94A70653
:101A8000F999FECF60911B0186E090E00E948510DD
:101A90009CCD81E080931B01660F771F90E080E072
:101AA0000E94031225ED34E045EB5FE3113021F095
:101AB00020ED33EB4DED5FE30E9491122DEC3CECF9
:101AC0004CE45FE30E94F6100E94D4116935A2E055
:101AD0007A0780F470931A016093190180911901BB
:101AE00090911A01892B09F0B4CFD0931A01C093B9
:101AF0001901AFCF88E592E090931A018093190104
:101B0000EDCF8CE0B8CF80910E018A3031F08AE0C1
:101B100080930E018BE061E0B9CD81E080930E01EE
:101B20008CE0F9CF0E943C04882309F44ECD83E079
:101B30008093DE011092DB011092DA01809119018D
:101B400090911A012091130130911401281739073F
:101B500009F470CE60911B010E944E066BCE83305B
:101B600009F018C18091DA018E31D0F11092DE01B6
:101B7000809170008E7F809370000E94A20360911C
:101B80000F01709110018091110190911201611566
:101B900071058105910591F480920F0190921001D9
:101BA000A0921101B092120140E068EE73E080E073
:101BB00090E00E946E040E948B0606CFC0900A013E
:101BC000D0900B01E0900C01F0900D016C157D059B
:101BD0008E059F0509F4F9CC40E00E946E04F5CC17
:101BE0000E94E703882309F499C01092DB01109248
:101BF000DA0140910601509107016091080170914E
:101C00000901443651056105710509F465C0E8F420
:101C10004130510561057105F1F14A305105610509
:101C2000710509F0D2CC8F3F09F047C084E690E0FF
:101C3000A0E0B0E08093060190930701A093080113
:101C4000B093090160E08AE021CD403137E25307CB
:101C50006105710509F44DC0403A96E8590791E0D5
:101C60006907710509F456C0483E53406105710586
:101C700009F0ABCC8F3FD1F680E197E2A0E0B0E075
:101C80008093060190930701A0930801B093090186
:101C900060E087E0FBCC8F3F09F097CC8AE090E0D2
:101CA000A0E0B0E08093060190930701A0930801A3
:101CB000B093090160E08BE0E9CC81E090E0A0E026
:101CC000B0E08093060190930701A0930801B093C0
:101CD000090160E08CE0DACC8F3F01F780920601C9
:101CE00090920701A0920801B092090160E088E09B
:101CF000CDCC8F3F99F780EA96E8A1E0B0E08093E1
:101D0000060190930701A0930801B093090160E0D8
:101D100086E0BCCC813009F058CCAECF0E94FF03E6
:101D2000892B09F498C184E08093DE011092DB01D5
:101D30001092DA018091060190910701A0910801AB
:101D4000B0910901803127E29207A105B10571F434
:101D500060910F0170911001809111019091120119
:101D600041E00E946E0460E087E0D3CC803A964860
:101D7000A140B10509F0CFCC60910F017091100125
:101D8000809111019091120142E00E946E0460E086
:101D900086E0BFCC843009F018CC8091DA018E3116
:101DA00060F11092DE01809170008E7F8093700050
:101DB0000E94A20380910F0190911001A091110146
:101DC000B0911201892B8A2B8B2B71F480920F0119
:101DD00090921001A0921101B09212010E948B0604
:101DE00080E590E00E945C0460910F017091100109
:101DF0008091110190911201EFCE0E94E703282FEC
:101E0000882309F4B5C01092DB011092DA01C0906A
:101E10000601D0900701E0900801F090090180913F
:101E20000A0190910B01A0910C01B0910D012F3F7F
:101E300079F48C199D09AE09BF09B7FD1EC08093C6
:101E40000A0190930B01A0930C01B0930D0115C0F2
:101E50008C0D9D1DAE1DBF1D20911D0140E45BE456
:101E60006CE470E0223021F040E251EA67E070E07B
:101E7000481759076A077B0714F740900A015090EA
:101E80000B0160900C0170900D0141E080E1C816DB
:101E900087E2D806E104F10451F042E090EAC91665
:101EA00096E8D90691E0E906F10409F040E0C301A3
:101EB000B2010E946E040E94BA03A4E6CA16D104BD
:101EC000E104F10409F44BC060F521E0C216D1042D
:101ED000E104F10409F43EC060E08BE03AE0C3168F
:101EE000D104E104F104C1F18091D90181116DCBDC
:101EF00080910F0190911001A0911101B0911201F8
:101F000084159505A605B70509F45FCB40920F012E
:101F10005092100160921101709212010E948B0682
:101F200054CB80E1C81687E2D806E104F104D1F071
:101F300090EAC91696E8D90691E0E906F104A9F0FD
:101F4000A8EECA16A3E0DA06E104F10469F660E03F
:101F500088E002C060E08CE00E947303C5CF60E0BF
:101F60008AE0FACF60E087E0F7CF60E086E0F4CF68
:101F70000E94FF03892B09F46EC083E08093DE0189
:101F80001092DB011092DA018091D901813019F5AC
:101F900080910A0190910B01A0910C01B0910D016B
:101FA00040910F0150911001609111017091120147
:101FB000481759076A077B0771F080930F019093C8
:101FC0001001A0931101B09312010E948B0680E5CD
:101FD00090E00E945C0460910F017091100180916B
:101FE00011019091120140E00E946E040E94CB0307
:101FF0000E94C3038091060190910701A0910801FE
:10200000B091090184369105A105B10509F41ACEF4
:1020100060F481309105A105B10509F45ACE0A9703
:10202000A105B10509F446CED0CA803127E2920756
:10203000A105B10509F42CCE803A36E8930731E0CA
:10204000A307B10509F463CE883E9340A105B1050D
:1020500009F0BBCA4BCE0E943C04882309F4B5CAE0
:1020600081E08093DE011092DB011092DA01109280
:10207000DD011092DC0180910F0190911001A0917F
:102080001101B0911201892B8A2B8B2B71F4809254
:102090000F0190921001A0921101B09212010E94C2
:1020A0008B0680E590E00E945C0460910F017091C6
:1020B0001001809111019091120140E00E946E0484
:1020C00080911D0180931C0161E080E022CB28E516
:1020D00032E0009709F02ACC8AE090E00E945C048C
:1020E0002DCCF999FECF92BD81BDF89A992780B584
:1020F0000895A6E1B0E044E050E00C94AB10A8E1F4
:10210000B0E042E050E00C94AB10262FF999FECFDE
:1021100092BD81BDF89A019700B4021639F01FBA3A
:1021200020BD0FB6F894FA9AF99A0FBE0895039657
:10213000272F0E9486100E948510252F0E9486104E
:10214000242F0C9486100196272F0E9486100C9441
:102150008510DC01CB01FC01F999FECF06C0F2BD70
:10216000E1BDF89A319600B40D9241505040B8F755
:102170000895AA1BBB1B51E107C0AA1FBB1FA617CE
:10218000B70710F0A61BB70B881F991F5A95A9F720
:1021900080959095BC01CD010895A1E21A2EAA1B4D
:1021A000BB1BFD010DC0AA1FBB1FEE1FFF1FA21707
:1021B000B307E407F50720F0A21BB30BE40BF50B04
:1021C000661F771F881F991F1A9469F7609570958D
:1021D000809590959B01AC01BD01CF010895EE0F54
:1021E000FF1F0590F491E02D09945058BB27AA27B2
:1021F0000E940D110C9457120E94491238F00E944F
:10220000501220F039F49F3F19F426F40C94461232
:102210000EF4E095E7FB0C944012E92F0E9468123F
:1022200058F3BA17620773078407950720F079F40B
:10223000A6F50C948A120EF4E0950B2EBA2FA02D61
:102240000B01B90190010C01CA01A0011124FF2763
:10225000591B99F0593F50F4503E68F11A16F0405E
:10226000A22F232F342F4427585FF3CF469537955D
:102270002795A795F0405395C9F77EF41F16BA0B22
:10228000620B730B840BBAF09150A1F0FF0FBB1FD0
:10229000661F771F881FC2F70EC0BA0F621F731F19
:1022A000841F48F4879577956795B795F7959E3F76
:1022B00008F0B0CF9395880F08F09927EE0F979507
:1022C000879508950E9476110C9457120E9450121F
:1022D00058F00E94491240F029F45F3F29F00C9415
:1022E000401251110C948B120C9446120E946812E9
:1022F00068F39923B1F3552391F3951B550BBB2735
:10230000AA2762177307840738F09F5F5F4F220F79
:10231000331F441FAA1FA9F335D00E2E3AF0E0E870
:1023200032D091505040E695001CCAF72BD0FE2FBA
:1023300029D0660F771F881FBB1F2617370748074E
:10234000AB07B0E809F0BB0B802DBF01FF27935806
:102350005F4F3AF09E3F510578F00C9440120C9478
:102360008B125F3FE4F3983ED4F38695779567959B
:10237000B795F7959F5FC9F7880F911D969587953B
:1023800097F90895E1E0660F771F881FBB1F62175A
:1023900073078407BA0720F0621B730B840BBA0B18
:1023A000EE1F88F7E09508950E94701288F09F57FD
:1023B00098F0B92F9927B751B0F0E1F0660F771F69
:1023C000881F991F1AF0BA95C9F714C0B13091F05F
:1023D0000E948A12B1E008950C948A12672F782F18
:1023E0008827B85F39F0B93FCCF386957795679524
:1023F000B395D9F73EF490958095709561957F4F90
:102400008F4F9F4F0895E89409C097FB3EF4909535
:102410008095709561957F4F8F4F9F4F9923A9F0BD
:10242000F92F96E9BB279395F6958795779567954C
:10243000B795F111F8CFFAF4BB0F11F460FF1BC090
:102440006F5F7F4F8F4F9F4F16C0882311F096E923
:1024500011C0772321F09EE8872F762F05C06623D1
:1024600071F096E8862F70E060E02AF09A95660F8A
:10247000771F881FDAF7880F9695879597F9089543
:1024800097F99F6780E870E060E008959FEF80EC27
:10249000089500240A9416161706180609060895CA
:1024A00000240A9412161306140605060895092E30
:1024B0000394000C11F4882352F0BB0F40F4BF2B9F
:1024C00011F460FF04C06F5F7F4F8F4F9F4F0895DF
:1024D00057FD9058440F551F59F05F3F71F04795D5
:1024E000880F97FB991F61F09F3F79F087950895BA
:1024F000121613061406551FF2CF4695F1DF08C0D9
:10250000161617061806991FF1CF869571056105F5
:1025100008940895E894BB2766277727CB0197F99D
:1025200008950E94A4120C9457120E94491238F088
:102530000E94501220F0952311F00C9440120C943C
:10254000461211240C948B120E94681270F3959F0E
:10255000C1F3950F50E0551F629FF001729FBB279A
:10256000F00DB11D639FAA27F00DB11DAA1F649F36
:102570006627B00DA11D661F829F2227B00DA11DE9
:10258000621F739FB00DA11D621F839FA00D611D6F
:10259000221F749F3327A00D611D231F849F600D90
:1025A000211D822F762F6A2F11249F5750409AF0B9
:1025B000F1F088234AF0EE0FFF1FBB1F661F771F45
:1025C000881F91505040A9F79E3F510580F00C9410
:1025D00040120C948B125F3FE4F3983ED4F386953F
:1025E00077956795B795F795E7959F5FC1F7FE2BB0
:1025F000880F911D9695879597F90895F894FFCFC8
:10260000010172020000E8030000E803000001E895
:10261000030000C8000100D400C80001010100004F
:10262000400014005400000000001B01EE00E40311
:10263000C400E700D400C50000000000D40373020A
:10264000E403E30353494E555320202000535155D2
:102650004152452020202035562D54544C005452D0
:1026600049414E474C45005670700056726D00440B
:1026700044532046756E6374696F6E2047652D0064
:102680006E657261746F7220284144393833332982
:102690000052616E67653A31487A2D302E354D48CB
:1026A0007A0054544C3A202031487A2D352E304D42
:1026B000487A005072657373696E6720627574742E
:1026C0006F6E20006368616E6765732076616C755C
:0426D0006521000080
:00000001FF
